{
  "_format": "hh-sol-artifact-1",
  "contractName": "StockExchange",
  "sourceName": "contracts/StockExchange.sol",
  "abi": [
    {
      "anonymous": false,
      "inputs": [
        {
          "indexed": false,
          "internalType": "uint256",
          "name": "id",
          "type": "uint256"
        },
        {
          "indexed": false,
          "internalType": "string",
          "name": "name",
          "type": "string"
        },
        {
          "indexed": false,
          "internalType": "uint256",
          "name": "price",
          "type": "uint256"
        },
        {
          "indexed": false,
          "internalType": "uint256",
          "name": "totalSupply",
          "type": "uint256"
        }
      ],
      "name": "StockCreated",
      "type": "event"
    },
    {
      "anonymous": false,
      "inputs": [
        {
          "indexed": false,
          "internalType": "address",
          "name": "buyer",
          "type": "address"
        },
        {
          "indexed": false,
          "internalType": "uint256",
          "name": "stockId",
          "type": "uint256"
        },
        {
          "indexed": false,
          "internalType": "uint256",
          "name": "amount",
          "type": "uint256"
        }
      ],
      "name": "StockPurchased",
      "type": "event"
    },
    {
      "anonymous": false,
      "inputs": [
        {
          "indexed": false,
          "internalType": "address",
          "name": "from",
          "type": "address"
        },
        {
          "indexed": false,
          "internalType": "address",
          "name": "to",
          "type": "address"
        },
        {
          "indexed": false,
          "internalType": "uint256",
          "name": "stockId",
          "type": "uint256"
        },
        {
          "indexed": false,
          "internalType": "uint256",
          "name": "amount",
          "type": "uint256"
        }
      ],
      "name": "StockTransferred",
      "type": "event"
    },
    {
      "inputs": [
        {
          "internalType": "address",
          "name": "",
          "type": "address"
        },
        {
          "internalType": "uint256",
          "name": "",
          "type": "uint256"
        }
      ],
      "name": "balances",
      "outputs": [
        {
          "internalType": "uint256",
          "name": "",
          "type": "uint256"
        }
      ],
      "stateMutability": "view",
      "type": "function"
    },
    {
      "inputs": [
        {
          "internalType": "string",
          "name": "_name",
          "type": "string"
        },
        {
          "internalType": "uint256",
          "name": "_price",
          "type": "uint256"
        },
        {
          "internalType": "uint256",
          "name": "_totalSupply",
          "type": "uint256"
        }
      ],
      "name": "createStock",
      "outputs": [],
      "stateMutability": "nonpayable",
      "type": "function"
    },
    {
      "inputs": [
        {
          "internalType": "uint256",
          "name": "_stockId",
          "type": "uint256"
        },
        {
          "internalType": "uint256",
          "name": "_amount",
          "type": "uint256"
        }
      ],
      "name": "purchaseStock",
      "outputs": [],
      "stateMutability": "payable",
      "type": "function"
    },
    {
      "inputs": [],
      "name": "stockCount",
      "outputs": [
        {
          "internalType": "uint256",
          "name": "",
          "type": "uint256"
        }
      ],
      "stateMutability": "view",
      "type": "function"
    },
    {
      "inputs": [
        {
          "internalType": "uint256",
          "name": "",
          "type": "uint256"
        }
      ],
      "name": "stocks",
      "outputs": [
        {
          "internalType": "string",
          "name": "name",
          "type": "string"
        },
        {
          "internalType": "uint256",
          "name": "price",
          "type": "uint256"
        },
        {
          "internalType": "uint256",
          "name": "totalSupply",
          "type": "uint256"
        },
        {
          "internalType": "uint256",
          "name": "availableSupply",
          "type": "uint256"
        },
        {
          "internalType": "address",
          "name": "owner",
          "type": "address"
        }
      ],
      "stateMutability": "view",
      "type": "function"
    },
    {
      "inputs": [
        {
          "internalType": "address",
          "name": "_to",
          "type": "address"
        },
        {
          "internalType": "uint256",
          "name": "_stockId",
          "type": "uint256"
        },
        {
          "internalType": "uint256",
          "name": "_amount",
          "type": "uint256"
        }
      ],
      "name": "transferStock",
      "outputs": [],
      "stateMutability": "nonpayable",
      "type": "function"
    }
  ],
  "bytecode": "0x6080604052348015600f57600080fd5b5061123e8061001f6000396000f3fe6080604052600436106100555760003560e01c806316b281681461005a5780632221e66714610083578063226b876c146100ac5780638508da5c146100ed578063cbf1304d14610118578063d53ffbcf14610155575b600080fd5b34801561006657600080fd5b50610081600480360381019061007c919061088c565b610171565b005b34801561008f57600080fd5b506100aa60048036038101906100a59190610959565b6102df565b005b3480156100b857600080fd5b506100d360048036038101906100ce91906109ac565b610482565b6040516100e4959493929190610a76565b60405180910390f35b3480156100f957600080fd5b50610102610560565b60405161010f9190610ad0565b60405180910390f35b34801561012457600080fd5b5061013f600480360381019061013a9190610aeb565b610566565b60405161014c9190610ad0565b60405180910390f35b61016f600480360381019061016a9190610b2b565b61058b565b005b600081116101b4576040517f08c379a00000000000000000000000000000000000000000000000000000000081526004016101ab90610bdd565b60405180910390fd5b600260008154809291906101c790610c2c565b91905055506040518060a001604052808481526020018381526020018281526020018281526020013373ffffffffffffffffffffffffffffffffffffffff16815250600080600254815260200190815260200160002060008201518160000190816102329190610e80565b5060208201518160010155604082015181600201556060820151816003015560808201518160040160006101000a81548173ffffffffffffffffffffffffffffffffffffffff021916908373ffffffffffffffffffffffffffffffffffffffff1602179055509050507f3449635ce257d05904890dab357fd757c2ca5d4686977c951a0afd60ee3a69556002548484846040516102d29493929190610f52565b60405180910390a1505050565b80600160003373ffffffffffffffffffffffffffffffffffffffff1673ffffffffffffffffffffffffffffffffffffffff1681526020019081526020016000206000848152602001908152602001600020541015610372576040517f08c379a000000000000000000000000000000000000000000000000000000000815260040161036990610fea565b60405180910390fd5b80600160003373ffffffffffffffffffffffffffffffffffffffff1673ffffffffffffffffffffffffffffffffffffffff168152602001908152602001600020600084815260200190815260200160002060008282546103d2919061100a565b9250508190555080600160008573ffffffffffffffffffffffffffffffffffffffff1673ffffffffffffffffffffffffffffffffffffffff16815260200190815260200160002060008481526020019081526020016000206000828254610439919061103e565b925050819055507fe0afc8c24a17807114e0f3adf2e6afa82d58c9647f120968a9ae16b4078be061338484846040516104759493929190611072565b60405180910390a1505050565b60006020528060005260406000206000915090508060000180546104a590610ca3565b80601f01602080910402602001604051908101604052809291908181526020018280546104d190610ca3565b801561051e5780601f106104f35761010080835404028352916020019161051e565b820191906000526020600020905b81548152906001019060200180831161050157829003601f168201915b5050505050908060010154908060020154908060030154908060040160009054906101000a900473ffffffffffffffffffffffffffffffffffffffff16905085565b60025481565b6001602052816000526040600020602052806000526040600020600091509150505481565b6000806000848152602001908152602001600020905081816003015410156105e8576040517f08c379a00000000000000000000000000000000000000000000000000000000081526004016105df90611103565b60405180910390fd5b8181600101546105f89190611123565b34101561063a576040517f08c379a0000000000000000000000000000000000000000000000000000000008152600401610631906111b1565b60405180910390fd5b8181600301600082825461064e919061100a565b9250508190555081600160003373ffffffffffffffffffffffffffffffffffffffff1673ffffffffffffffffffffffffffffffffffffffff168152602001908152602001600020600085815260200190815260200160002060008282546106b5919061103e565b925050819055507fc0bcdc28f6619d8ba6313614295a1f7b0477a1ad3f83ec463254630f3c5a306f3384846040516106ef939291906111d1565b60405180910390a1505050565b6000604051905090565b600080fd5b600080fd5b600080fd5b600080fd5b6000601f19601f8301169050919050565b7f4e487b7100000000000000000000000000000000000000000000000000000000600052604160045260246000fd5b6107638261071a565b810181811067ffffffffffffffff821117156107825761078161072b565b5b80604052505050565b60006107956106fc565b90506107a1828261075a565b919050565b600067ffffffffffffffff8211156107c1576107c061072b565b5b6107ca8261071a565b9050602081019050919050565b82818337600083830152505050565b60006107f96107f4846107a6565b61078b565b90508281526020810184848401111561081557610814610715565b5b6108208482856107d7565b509392505050565b600082601f83011261083d5761083c610710565b5b813561084d8482602086016107e6565b91505092915050565b6000819050919050565b61086981610856565b811461087457600080fd5b50565b60008135905061088681610860565b92915050565b6000806000606084860312156108a5576108a4610706565b5b600084013567ffffffffffffffff8111156108c3576108c261070b565b5b6108cf86828701610828565b93505060206108e086828701610877565b92505060406108f186828701610877565b9150509250925092565b600073ffffffffffffffffffffffffffffffffffffffff82169050919050565b6000610926826108fb565b9050919050565b6109368161091b565b811461094157600080fd5b50565b6000813590506109538161092d565b92915050565b60008060006060848603121561097257610971610706565b5b600061098086828701610944565b935050602061099186828701610877565b92505060406109a286828701610877565b9150509250925092565b6000602082840312156109c2576109c1610706565b5b60006109d084828501610877565b91505092915050565b600081519050919050565b600082825260208201905092915050565b60005b83811015610a135780820151818401526020810190506109f8565b60008484015250505050565b6000610a2a826109d9565b610a3481856109e4565b9350610a448185602086016109f5565b610a4d8161071a565b840191505092915050565b610a6181610856565b82525050565b610a708161091b565b82525050565b600060a0820190508181036000830152610a908188610a1f565b9050610a9f6020830187610a58565b610aac6040830186610a58565b610ab96060830185610a58565b610ac66080830184610a67565b9695505050505050565b6000602082019050610ae56000830184610a58565b92915050565b60008060408385031215610b0257610b01610706565b5b6000610b1085828601610944565b9250506020610b2185828601610877565b9150509250929050565b60008060408385031215610b4257610b41610706565b5b6000610b5085828601610877565b9250506020610b6185828601610877565b9150509250929050565b7f546f74616c20737570706c79206d75737420626520677265617465722074686160008201527f6e20300000000000000000000000000000000000000000000000000000000000602082015250565b6000610bc76023836109e4565b9150610bd282610b6b565b604082019050919050565b60006020820190508181036000830152610bf681610bba565b9050919050565b7f4e487b7100000000000000000000000000000000000000000000000000000000600052601160045260246000fd5b6000610c3782610856565b91507fffffffffffffffffffffffffffffffffffffffffffffffffffffffffffffffff8203610c6957610c68610bfd565b5b600182019050919050565b7f4e487b7100000000000000000000000000000000000000000000000000000000600052602260045260246000fd5b60006002820490506001821680610cbb57607f821691505b602082108103610cce57610ccd610c74565b5b50919050565b60008190508160005260206000209050919050565b60006020601f8301049050919050565b600082821b905092915050565b600060088302610d367fffffffffffffffffffffffffffffffffffffffffffffffffffffffffffffffff82610cf9565b610d408683610cf9565b95508019841693508086168417925050509392505050565b6000819050919050565b6000610d7d610d78610d7384610856565b610d58565b610856565b9050919050565b6000819050919050565b610d9783610d62565b610dab610da382610d84565b848454610d06565b825550505050565b600090565b610dc0610db3565b610dcb818484610d8e565b505050565b5b81811015610def57610de4600082610db8565b600181019050610dd1565b5050565b601f821115610e3457610e0581610cd4565b610e0e84610ce9565b81016020851015610e1d578190505b610e31610e2985610ce9565b830182610dd0565b50505b505050565b600082821c905092915050565b6000610e5760001984600802610e39565b1980831691505092915050565b6000610e708383610e46565b9150826002028217905092915050565b610e89826109d9565b67ffffffffffffffff811115610ea257610ea161072b565b5b610eac8254610ca3565b610eb7828285610df3565b600060209050601f831160018114610eea5760008415610ed8578287015190505b610ee28582610e64565b865550610f4a565b601f198416610ef886610cd4565b60005b82811015610f2057848901518255600182019150602085019450602081019050610efb565b86831015610f3d5784890151610f39601f891682610e46565b8355505b6001600288020188555050505b505050505050565b6000608082019050610f676000830187610a58565b8181036020830152610f798186610a1f565b9050610f886040830185610a58565b610f956060830184610a58565b95945050505050565b7f4e6f7420656e6f7567682073746f636b20746f207472616e7366657200000000600082015250565b6000610fd4601c836109e4565b9150610fdf82610f9e565b602082019050919050565b6000602082019050818103600083015261100381610fc7565b9050919050565b600061101582610856565b915061102083610856565b925082820390508181111561103857611037610bfd565b5b92915050565b600061104982610856565b915061105483610856565b925082820190508082111561106c5761106b610bfd565b5b92915050565b60006080820190506110876000830187610a67565b6110946020830186610a67565b6110a16040830185610a58565b6110ae6060830184610a58565b95945050505050565b7f4e6f7420656e6f7567682073746f636b20617661696c61626c65000000000000600082015250565b60006110ed601a836109e4565b91506110f8826110b7565b602082019050919050565b6000602082019050818103600083015261111c816110e0565b9050919050565b600061112e82610856565b915061113983610856565b925082820261114781610856565b9150828204841483151761115e5761115d610bfd565b5b5092915050565b7f496e73756666696369656e742066756e64732073656e74000000000000000000600082015250565b600061119b6017836109e4565b91506111a682611165565b602082019050919050565b600060208201905081810360008301526111ca8161118e565b9050919050565b60006060820190506111e66000830186610a67565b6111f36020830185610a58565b6112006040830184610a58565b94935050505056fea264697066735822122090d77138882e6fc5c02b0be374fa55e84f78112471f6aaa83e6c5a429dd81d5164736f6c634300081b0033",
  "linkReferences": {},
  "deployedLinkReferences": {}
}